{
  "contractName": "AnimalsWorld",
  "abi": [
    {
      "inputs": [],
      "stateMutability": "nonpayable",
      "type": "constructor"
    },
    {
      "anonymous": false,
      "inputs": [
        {
          "indexed": true,
          "internalType": "address",
          "name": "owner",
          "type": "address"
        },
        {
          "indexed": true,
          "internalType": "address",
          "name": "approved",
          "type": "address"
        },
        {
          "indexed": true,
          "internalType": "uint256",
          "name": "tokenId",
          "type": "uint256"
        }
      ],
      "name": "Approval",
      "type": "event"
    },
    {
      "anonymous": false,
      "inputs": [
        {
          "indexed": true,
          "internalType": "address",
          "name": "owner",
          "type": "address"
        },
        {
          "indexed": true,
          "internalType": "address",
          "name": "operator",
          "type": "address"
        },
        {
          "indexed": false,
          "internalType": "bool",
          "name": "approved",
          "type": "bool"
        }
      ],
      "name": "ApprovalForAll",
      "type": "event"
    },
    {
      "anonymous": false,
      "inputs": [
        {
          "indexed": true,
          "internalType": "address",
          "name": "from",
          "type": "address"
        },
        {
          "indexed": true,
          "internalType": "address",
          "name": "to",
          "type": "address"
        },
        {
          "indexed": true,
          "internalType": "uint256",
          "name": "tokenId",
          "type": "uint256"
        }
      ],
      "name": "Transfer",
      "type": "event"
    },
    {
      "inputs": [
        {
          "internalType": "uint256",
          "name": "",
          "type": "uint256"
        }
      ],
      "name": "animalCharacteristic",
      "outputs": [
        {
          "internalType": "string",
          "name": "animalName",
          "type": "string"
        },
        {
          "internalType": "string",
          "name": "gender",
          "type": "string"
        },
        {
          "internalType": "uint8",
          "name": "age",
          "type": "uint8"
        },
        {
          "internalType": "uint8",
          "name": "wingsNumber",
          "type": "uint8"
        },
        {
          "internalType": "uint8",
          "name": "legsNumber",
          "type": "uint8"
        },
        {
          "internalType": "uint8",
          "name": "eyesNumber",
          "type": "uint8"
        }
      ],
      "stateMutability": "view",
      "type": "function"
    },
    {
      "inputs": [
        {
          "internalType": "address",
          "name": "to",
          "type": "address"
        },
        {
          "internalType": "uint256",
          "name": "tokenId",
          "type": "uint256"
        }
      ],
      "name": "approve",
      "outputs": [],
      "stateMutability": "nonpayable",
      "type": "function"
    },
    {
      "inputs": [
        {
          "internalType": "address",
          "name": "owner",
          "type": "address"
        }
      ],
      "name": "balanceOf",
      "outputs": [
        {
          "internalType": "uint256",
          "name": "",
          "type": "uint256"
        }
      ],
      "stateMutability": "view",
      "type": "function"
    },
    {
      "inputs": [],
      "name": "baseURI",
      "outputs": [
        {
          "internalType": "string",
          "name": "",
          "type": "string"
        }
      ],
      "stateMutability": "view",
      "type": "function"
    },
    {
      "inputs": [
        {
          "internalType": "uint256",
          "name": "tokenId",
          "type": "uint256"
        }
      ],
      "name": "getApproved",
      "outputs": [
        {
          "internalType": "address",
          "name": "",
          "type": "address"
        }
      ],
      "stateMutability": "view",
      "type": "function"
    },
    {
      "inputs": [
        {
          "internalType": "address",
          "name": "owner",
          "type": "address"
        },
        {
          "internalType": "address",
          "name": "operator",
          "type": "address"
        }
      ],
      "name": "isApprovedForAll",
      "outputs": [
        {
          "internalType": "bool",
          "name": "",
          "type": "bool"
        }
      ],
      "stateMutability": "view",
      "type": "function"
    },
    {
      "inputs": [],
      "name": "name",
      "outputs": [
        {
          "internalType": "string",
          "name": "",
          "type": "string"
        }
      ],
      "stateMutability": "view",
      "type": "function"
    },
    {
      "inputs": [
        {
          "internalType": "uint256",
          "name": "tokenId",
          "type": "uint256"
        }
      ],
      "name": "ownerOf",
      "outputs": [
        {
          "internalType": "address",
          "name": "",
          "type": "address"
        }
      ],
      "stateMutability": "view",
      "type": "function"
    },
    {
      "inputs": [
        {
          "internalType": "uint256",
          "name": "",
          "type": "uint256"
        }
      ],
      "name": "registerBreeder",
      "outputs": [
        {
          "internalType": "address",
          "name": "",
          "type": "address"
        }
      ],
      "stateMutability": "view",
      "type": "function"
    },
    {
      "inputs": [
        {
          "internalType": "address",
          "name": "from",
          "type": "address"
        },
        {
          "internalType": "address",
          "name": "to",
          "type": "address"
        },
        {
          "internalType": "uint256",
          "name": "tokenId",
          "type": "uint256"
        }
      ],
      "name": "safeTransferFrom",
      "outputs": [],
      "stateMutability": "nonpayable",
      "type": "function"
    },
    {
      "inputs": [
        {
          "internalType": "address",
          "name": "from",
          "type": "address"
        },
        {
          "internalType": "address",
          "name": "to",
          "type": "address"
        },
        {
          "internalType": "uint256",
          "name": "tokenId",
          "type": "uint256"
        },
        {
          "internalType": "bytes",
          "name": "_data",
          "type": "bytes"
        }
      ],
      "name": "safeTransferFrom",
      "outputs": [],
      "stateMutability": "nonpayable",
      "type": "function"
    },
    {
      "inputs": [
        {
          "internalType": "address",
          "name": "operator",
          "type": "address"
        },
        {
          "internalType": "bool",
          "name": "approved",
          "type": "bool"
        }
      ],
      "name": "setApprovalForAll",
      "outputs": [],
      "stateMutability": "nonpayable",
      "type": "function"
    },
    {
      "inputs": [
        {
          "internalType": "bytes4",
          "name": "interfaceId",
          "type": "bytes4"
        }
      ],
      "name": "supportsInterface",
      "outputs": [
        {
          "internalType": "bool",
          "name": "",
          "type": "bool"
        }
      ],
      "stateMutability": "view",
      "type": "function"
    },
    {
      "inputs": [],
      "name": "symbol",
      "outputs": [
        {
          "internalType": "string",
          "name": "",
          "type": "string"
        }
      ],
      "stateMutability": "view",
      "type": "function"
    },
    {
      "inputs": [
        {
          "internalType": "uint256",
          "name": "index",
          "type": "uint256"
        }
      ],
      "name": "tokenByIndex",
      "outputs": [
        {
          "internalType": "uint256",
          "name": "",
          "type": "uint256"
        }
      ],
      "stateMutability": "view",
      "type": "function"
    },
    {
      "inputs": [
        {
          "internalType": "address",
          "name": "owner",
          "type": "address"
        },
        {
          "internalType": "uint256",
          "name": "index",
          "type": "uint256"
        }
      ],
      "name": "tokenOfOwnerByIndex",
      "outputs": [
        {
          "internalType": "uint256",
          "name": "",
          "type": "uint256"
        }
      ],
      "stateMutability": "view",
      "type": "function"
    },
    {
      "inputs": [
        {
          "internalType": "uint256",
          "name": "tokenId",
          "type": "uint256"
        }
      ],
      "name": "tokenURI",
      "outputs": [
        {
          "internalType": "string",
          "name": "",
          "type": "string"
        }
      ],
      "stateMutability": "view",
      "type": "function"
    },
    {
      "inputs": [],
      "name": "totalSupply",
      "outputs": [
        {
          "internalType": "uint256",
          "name": "",
          "type": "uint256"
        }
      ],
      "stateMutability": "view",
      "type": "function"
    },
    {
      "inputs": [
        {
          "internalType": "address",
          "name": "from",
          "type": "address"
        },
        {
          "internalType": "address",
          "name": "to",
          "type": "address"
        },
        {
          "internalType": "uint256",
          "name": "tokenId",
          "type": "uint256"
        }
      ],
      "name": "transferFrom",
      "outputs": [],
      "stateMutability": "nonpayable",
      "type": "function"
    },
    {
      "inputs": [
        {
          "internalType": "string",
          "name": "animalName",
          "type": "string"
        },
        {
          "internalType": "string",
          "name": "gender",
          "type": "string"
        },
        {
          "internalType": "uint8",
          "name": "age",
          "type": "uint8"
        },
        {
          "internalType": "uint8",
          "name": "wingsNumber",
          "type": "uint8"
        },
        {
          "internalType": "uint8",
          "name": "legsNumber",
          "type": "uint8"
        },
        {
          "internalType": "uint8",
          "name": "eyesNumber",
          "type": "uint8"
        }
      ],
      "name": "declareAnimal",
      "outputs": [
        {
          "internalType": "uint256",
          "name": "",
          "type": "uint256"
        }
      ],
      "stateMutability": "nonpayable",
      "type": "function"
    },
    {
      "inputs": [
        {
          "internalType": "uint256",
          "name": "animalId",
          "type": "uint256"
        }
      ],
      "name": "deadAnimal",
      "outputs": [],
      "stateMutability": "nonpayable",
      "type": "function"
    },
    {
      "inputs": [
        {
          "internalType": "string",
          "name": "newAnimalName",
          "type": "string"
        },
        {
          "internalType": "uint256",
          "name": "animal_one",
          "type": "uint256"
        },
        {
          "internalType": "uint256",
          "name": "animal_two",
          "type": "uint256"
        }
      ],
      "name": "breedAnimal",
      "outputs": [
        {
          "internalType": "uint256",
          "name": "",
          "type": "uint256"
        }
      ],
      "stateMutability": "nonpayable",
      "type": "function"
    },
    {
      "inputs": [],
      "name": "random",
      "outputs": [
        {
          "internalType": "uint256",
          "name": "",
          "type": "uint256"
        }
      ],
      "stateMutability": "nonpayable",
      "type": "function"
    }
  ],
  "bytecode": "0x60806040526003600c553480156200001657600080fd5b506040518060400160405280600c81526020017f416e696d616c73576f726c6400000000000000000000000000000000000000008152506040518060400160405280600481526020017f414e4d57000000000000000000000000000000000000000000000000000000008152506200009b6301ffc9a760e01b6200015e60201b60201c565b8160069080519060200190620000b392919062000267565b508060079080519060200190620000cc92919062000267565b50620000e56380ac58cd60e01b6200015e60201b60201c565b620000fd635b5e139f60e01b6200015e60201b60201c565b6200011563780e9d6360e01b6200015e60201b60201c565b505033600b60006101000a81548173ffffffffffffffffffffffffffffffffffffffff021916908373ffffffffffffffffffffffffffffffffffffffff1602179055506200030d565b63ffffffff60e01b817bffffffffffffffffffffffffffffffffffffffffffffffffffffffff19161415620001fb576040517f08c379a000000000000000000000000000000000000000000000000000000000815260040180806020018281038252601c8152602001807f4552433136353a20696e76616c696420696e746572666163652069640000000081525060200191505060405180910390fd5b6001600080837bffffffffffffffffffffffffffffffffffffffffffffffffffffffff19167bffffffffffffffffffffffffffffffffffffffffffffffffffffffff1916815260200190815260200160002060006101000a81548160ff02191690831515021790555050565b828054600181600116156101000203166002900490600052602060002090601f016020900481019282601f10620002aa57805160ff1916838001178555620002db565b82800160010185558215620002db579182015b82811115620002da578251825591602001919060010190620002bd565b5b509050620002ea9190620002ee565b5090565b5b8082111562000309576000816000905550600101620002ef565b5090565b614059806200031d6000396000f3fe608060405234801561001057600080fd5b506004361061014d5760003560e01c80636352211e116100c35780639bef10ea1161007c5780639bef10ea146108c6578063a22cb46514610a60578063b88d4fde14610ab0578063c87b56dd14610bb5578063e985e9c514610c5c578063ec9b6db914610cd65761014d565b80636352211e1461057d5780636c0360eb146105d557806370a082311461065857806379ba3b8c146106b057806380622165146107eb57806395d89b41146108435761014d565b806318160ddd1161011557806318160ddd146103c157806323b872dd146103df5780632f745c591461044d57806342842e0e146104af5780634f6ccce71461051d5780635ec01e4d1461055f5761014d565b806301ffc9a71461015257806306fdde03146101b5578063081812fc14610238578063095ea7b3146102905780630996535e146102de575b600080fd5b61019d6004803603602081101561016857600080fd5b8101908080357bffffffffffffffffffffffffffffffffffffffffffffffffffffffff19169060200190929190505050610d04565b60405180821515815260200191505060405180910390f35b6101bd610d6b565b6040518080602001828103825283818151815260200191508051906020019080838360005b838110156101fd5780820151818401526020810190506101e2565b50505050905090810190601f16801561022a5780820380516001836020036101000a031916815260200191505b509250505060405180910390f35b6102646004803603602081101561024e57600080fd5b8101908080359060200190929190505050610e0d565b604051808273ffffffffffffffffffffffffffffffffffffffff16815260200191505060405180910390f35b6102dc600480360360408110156102a657600080fd5b81019080803573ffffffffffffffffffffffffffffffffffffffff16906020019092919080359060200190929190505050610ea8565b005b6103ab600480360360608110156102f457600080fd5b810190808035906020019064010000000081111561031157600080fd5b82018360208201111561032357600080fd5b8035906020019184600183028401116401000000008311171561034557600080fd5b91908080601f016020809104026020016040519081016040528093929190818152602001838380828437600081840152601f19601f8201169050808301925050505050505091929192908035906020019092919080359060200190929190505050610fec565b6040518082815260200191505060405180910390f35b6103c9611612565b6040518082815260200191505060405180910390f35b61044b600480360360608110156103f557600080fd5b81019080803573ffffffffffffffffffffffffffffffffffffffff169060200190929190803573ffffffffffffffffffffffffffffffffffffffff16906020019092919080359060200190929190505050611623565b005b6104996004803603604081101561046357600080fd5b81019080803573ffffffffffffffffffffffffffffffffffffffff16906020019092919080359060200190929190505050611699565b6040518082815260200191505060405180910390f35b61051b600480360360608110156104c557600080fd5b81019080803573ffffffffffffffffffffffffffffffffffffffff169060200190929190803573ffffffffffffffffffffffffffffffffffffffff169060200190929190803590602001909291905050506116f4565b005b6105496004803603602081101561053357600080fd5b8101908080359060200190929190505050611714565b6040518082815260200191505060405180910390f35b610567611737565b6040518082815260200191505060405180910390f35b6105a96004803603602081101561059357600080fd5b81019080803590602001909291905050506117b5565b604051808273ffffffffffffffffffffffffffffffffffffffff16815260200191505060405180910390f35b6105dd6117ec565b6040518080602001828103825283818151815260200191508051906020019080838360005b8381101561061d578082015181840152602081019050610602565b50505050905090810190601f16801561064a5780820380516001836020036101000a031916815260200191505b509250505060405180910390f35b61069a6004803603602081101561066e57600080fd5b81019080803573ffffffffffffffffffffffffffffffffffffffff16906020019092919050505061188e565b6040518082815260200191505060405180910390f35b6106dc600480360360208110156106c657600080fd5b8101908080359060200190929190505050611963565b6040518080602001806020018760ff1681526020018660ff1681526020018560ff1681526020018460ff168152602001838103835289818151815260200191508051906020019080838360005b83811015610744578082015181840152602081019050610729565b50505050905090810190601f1680156107715780820380516001836020036101000a031916815260200191505b50838103825288818151815260200191508051906020019080838360005b838110156107aa57808201518184015260208101905061078f565b50505050905090810190601f1680156107d75780820380516001836020036101000a031916815260200191505b509850505050505050505060405180910390f35b6108176004803603602081101561080157600080fd5b8101908080359060200190929190505050611b03565b604051808273ffffffffffffffffffffffffffffffffffffffff16815260200191505060405180910390f35b61084b611b36565b6040518080602001828103825283818151815260200191508051906020019080838360005b8381101561088b578082015181840152602081019050610870565b50505050905090810190601f1680156108b85780820380516001836020036101000a031916815260200191505b509250505060405180910390f35b610a4a600480360360c08110156108dc57600080fd5b81019080803590602001906401000000008111156108f957600080fd5b82018360208201111561090b57600080fd5b8035906020019184600183028401116401000000008311171561092d57600080fd5b91908080601f016020809104026020016040519081016040528093929190818152602001838380828437600081840152601f19601f8201169050808301925050505050505091929192908035906020019064010000000081111561099057600080fd5b8201836020820111156109a257600080fd5b803590602001918460018302840111640100000000831117156109c457600080fd5b91908080601f016020809104026020016040519081016040528093929190818152602001838380828437600081840152601f19601f820116905080830192505050505050509192919290803560ff169060200190929190803560ff169060200190929190803560ff169060200190929190803560ff169060200190929190505050611bd8565b6040518082815260200191505060405180910390f35b610aae60048036036040811015610a7657600080fd5b81019080803573ffffffffffffffffffffffffffffffffffffffff169060200190929190803515159060200190929190505050611fb5565b005b610bb360048036036080811015610ac657600080fd5b81019080803573ffffffffffffffffffffffffffffffffffffffff169060200190929190803573ffffffffffffffffffffffffffffffffffffffff1690602001909291908035906020019092919080359060200190640100000000811115610b2d57600080fd5b820183602082011115610b3f57600080fd5b80359060200191846001830284011164010000000083111715610b6157600080fd5b91908080601f016020809104026020016040519081016040528093929190818152602001838380828437600081840152601f19601f82011690508083019250505050505050919291929050505061216b565b005b610be160048036036020811015610bcb57600080fd5b81019080803590602001909291905050506121e3565b6040518080602001828103825283818151815260200191508051906020019080838360005b83811015610c21578082015181840152602081019050610c06565b50505050905090810190601f168015610c4e5780820380516001836020036101000a031916815260200191505b509250505060405180910390f35b610cbe60048036036040811015610c7257600080fd5b81019080803573ffffffffffffffffffffffffffffffffffffffff169060200190929190803573ffffffffffffffffffffffffffffffffffffffff1690602001909291905050506124b4565b60405180821515815260200191505060405180910390f35b610d0260048036036020811015610cec57600080fd5b8101908080359060200190929190505050612548565b005b6000806000837bffffffffffffffffffffffffffffffffffffffffffffffffffffffff19167bffffffffffffffffffffffffffffffffffffffffffffffffffffffff1916815260200190815260200160002060009054906101000a900460ff169050919050565b606060068054600181600116156101000203166002900480601f016020809104026020016040519081016040528092919081815260200182805460018160011615610100020316600290048015610e035780601f10610dd857610100808354040283529160200191610e03565b820191906000526020600020905b815481529060010190602001808311610de657829003601f168201915b5050505050905090565b6000610e1882612703565b610e6d576040517f08c379a000000000000000000000000000000000000000000000000000000000815260040180806020018281038252602c815260200180613f22602c913960400191505060405180910390fd5b6004600083815260200190815260200160002060009054906101000a900473ffffffffffffffffffffffffffffffffffffffff169050919050565b6000610eb3826117b5565b90508073ffffffffffffffffffffffffffffffffffffffff168373ffffffffffffffffffffffffffffffffffffffff161415610f3a576040517f08c379a0000000000000000000000000000000000000000000000000000000008152600401808060200182810382526021815260200180613fd26021913960400191505060405180910390fd5b8073ffffffffffffffffffffffffffffffffffffffff16610f59612720565b73ffffffffffffffffffffffffffffffffffffffff161480610f885750610f8781610f82612720565b6124b4565b5b610fdd576040517f08c379a0000000000000000000000000000000000000000000000000000000008152600401808060200182810382526038815260200180613e756038913960400191505060405180910390fd5b610fe78383612728565b505050565b60003373ffffffffffffffffffffffffffffffffffffffff16600d600085815260200190815260200160002060009054906101000a900473ffffffffffffffffffffffffffffffffffffffff1673ffffffffffffffffffffffffffffffffffffffff161480156110ba57503373ffffffffffffffffffffffffffffffffffffffff16600d600084815260200190815260200160002060009054906101000a900473ffffffffffffffffffffffffffffffffffffffff1673ffffffffffffffffffffffffffffffffffffffff16145b61110f576040517f08c379a0000000000000000000000000000000000000000000000000000000008152600401808060200182810382526031815260200180613d506031913960400191505060405180910390fd5b600e600083815260200190815260200160002060010160405160200180806020018281038252838181546001816001161561010002031660029004815260200191508054600181600116156101000203166002900480156111b15780601f10611186576101008083540402835291602001916111b1565b820191906000526020600020905b81548152906001019060200180831161119457829003601f168201915b50509250505060405160208183030381529060405280519060200120600e6000858152602001908152602001600020600101604051602001808060200182810382528381815460018160011615610100020316600290048152602001915080546001816001161561010002031660029004801561126f5780601f106112445761010080835404028352916020019161126f565b820191906000526020600020905b81548152906001019060200180831161125257829003601f168201915b5050925050506040516020818303038152906040528051906020012014156112e2576040517f08c379a000000000000000000000000000000000000000000000000000000000815260040180806020018281038252602c815260200180613f4e602c913960400191505060405180910390fd5b6112ec600a6127e1565b60006112f8600a6127f7565b90506113043382612805565b33600d600083815260200190815260200160002060006101000a81548173ffffffffffffffffffffffffffffffffffffffff021916908373ffffffffffffffffffffffffffffffffffffffff16021790555060006002600e600086815260200190815260200160002060020160019054906101000a900460ff16600e600088815260200190815260200160002060020160019054906101000a900460ff160160ff16816113ad57fe5b04905060006002600e600087815260200190815260200160002060020160029054906101000a900460ff16600e600089815260200190815260200160002060020160029054906101000a900460ff160160ff168161140757fe5b04905060006002600e600088815260200190815260200160002060020160039054906101000a900460ff16600e60008a815260200190815260200160002060020160039054906101000a900460ff160160ff168161146157fe5b04905060606000611470611737565b146114b0576040518060400160405280600681526020017f66656d656c6500000000000000000000000000000000000000000000000000008152506114e7565b6040518060400160405280600481526020017f6d616c65000000000000000000000000000000000000000000000000000000008152505b90506114f1613bd4565b6040518060c001604052808b8152602001838152602001600060ff1681526020018660ff1681526020018560ff1681526020018460ff16815250905080600e6000888152602001908152602001600020600082015181600001908051906020019061155d929190613c16565b50602082015181600101908051906020019061157a929190613c16565b5060408201518160020160006101000a81548160ff021916908360ff16021790555060608201518160020160016101000a81548160ff021916908360ff16021790555060808201518160020160026101000a81548160ff021916908360ff16021790555060a08201518160020160036101000a81548160ff021916908360ff1602179055509050508596505050505050509392505050565b600061161e60026129f9565b905090565b61163461162e612720565b82612a0e565b611689576040517f08c379a0000000000000000000000000000000000000000000000000000000008152600401808060200182810382526031815260200180613ff36031913960400191505060405180910390fd5b611694838383612b02565b505050565b60006116ec82600160008673ffffffffffffffffffffffffffffffffffffffff1673ffffffffffffffffffffffffffffffffffffffff168152602001908152602001600020612d4590919063ffffffff16565b905092915050565b61170f8383836040518060200160405280600081525061216b565b505050565b60008061172b836002612d5f90919063ffffffff16565b50905080915050919050565b6000600c6000815480929190600101919050555060004233600c54604051602001808481526020018373ffffffffffffffffffffffffffffffffffffffff1660601b815260140182815260200193505050506040516020818303038152906040528051906020012060001c9050600281816117ae57fe5b0691505090565b60006117e582604051806060016040528060298152602001613ed7602991396002612d8b9092919063ffffffff16565b9050919050565b606060098054600181600116156101000203166002900480601f0160208091040260200160405190810160405280929190818152602001828054600181600116156101000203166002900480156118845780601f1061185957610100808354040283529160200191611884565b820191906000526020600020905b81548152906001019060200180831161186757829003601f168201915b5050505050905090565b60008073ffffffffffffffffffffffffffffffffffffffff168273ffffffffffffffffffffffffffffffffffffffff161415611915576040517f08c379a000000000000000000000000000000000000000000000000000000000815260040180806020018281038252602a815260200180613ead602a913960400191505060405180910390fd5b61195c600160008473ffffffffffffffffffffffffffffffffffffffff1673ffffffffffffffffffffffffffffffffffffffff168152602001908152602001600020612daa565b9050919050565b600e602052806000526040600020600091509050806000018054600181600116156101000203166002900480601f016020809104026020016040519081016040528092919081815260200182805460018160011615610100020316600290048015611a0f5780601f106119e457610100808354040283529160200191611a0f565b820191906000526020600020905b8154815290600101906020018083116119f257829003601f168201915b505050505090806001018054600181600116156101000203166002900480601f016020809104026020016040519081016040528092919081815260200182805460018160011615610100020316600290048015611aad5780601f10611a8257610100808354040283529160200191611aad565b820191906000526020600020905b815481529060010190602001808311611a9057829003601f168201915b5050505050908060020160009054906101000a900460ff16908060020160019054906101000a900460ff16908060020160029054906101000a900460ff16908060020160039054906101000a900460ff16905086565b600d6020528060005260406000206000915054906101000a900473ffffffffffffffffffffffffffffffffffffffff1681565b606060078054600181600116156101000203166002900480601f016020809104026020016040519081016040528092919081815260200182805460018160011615610100020316600290048015611bce5780601f10611ba357610100808354040283529160200191611bce565b820191906000526020600020905b815481529060010190602001808311611bb157829003601f168201915b5050505050905090565b6000808560ff16118015611bef575060008460ff16115b8015611bfe575060008360ff16115b8015611c0d575060008260ff16115b611c62576040517f08c379a0000000000000000000000000000000000000000000000000000000008152600401808060200182810382526041815260200180613df76041913960600191505060405180910390fd5b7f6d616c6500000000000000000000000000000000000000000000000000000000866040516020018080602001828103825283818151815260200191508051906020019080838360005b83811015611cc7578082015181840152602081019050611cac565b50505050905090810190601f168015611cf45780820380516001836020036101000a031916815260200191505b5092505050604051602081830303815290604052805190602001201480611dc557507f66656d656c650000000000000000000000000000000000000000000000000000866040516020018080602001828103825283818151815260200191508051906020019080838360005b83811015611d7b578082015181840152602081019050611d60565b50505050905090810190601f168015611da85780820380516001836020036101000a031916815260200191505b509250505060405160208183030381529060405280519060200120145b611e1a576040517f08c379a000000000000000000000000000000000000000000000000000000000815260040180806020018281038252603d815260200180613e38603d913960400191505060405180910390fd5b611e24600a6127e1565b6000611e30600a6127f7565b9050611e3c3382612805565b33600d600083815260200190815260200160002060006101000a81548173ffffffffffffffffffffffffffffffffffffffff021916908373ffffffffffffffffffffffffffffffffffffffff160217905550611e96613bd4565b6040518060c001604052808a81526020018981526020018860ff1681526020018760ff1681526020018660ff1681526020018560ff16815250905080600e60008481526020019081526020016000206000820151816000019080519060200190611f01929190613c16565b506020820151816001019080519060200190611f1e929190613c16565b5060408201518160020160006101000a81548160ff021916908360ff16021790555060608201518160020160016101000a81548160ff021916908360ff16021790555060808201518160020160026101000a81548160ff021916908360ff16021790555060a08201518160020160036101000a81548160ff021916908360ff16021790555090505081925050509695505050505050565b611fbd612720565b73ffffffffffffffffffffffffffffffffffffffff168273ffffffffffffffffffffffffffffffffffffffff16141561205e576040517f08c379a00000000000000000000000000000000000000000000000000000000081526004018080602001828103825260198152602001807f4552433732313a20617070726f766520746f2063616c6c65720000000000000081525060200191505060405180910390fd5b806005600061206b612720565b73ffffffffffffffffffffffffffffffffffffffff1673ffffffffffffffffffffffffffffffffffffffff16815260200190815260200160002060008473ffffffffffffffffffffffffffffffffffffffff1673ffffffffffffffffffffffffffffffffffffffff16815260200190815260200160002060006101000a81548160ff0219169083151502179055508173ffffffffffffffffffffffffffffffffffffffff16612118612720565b73ffffffffffffffffffffffffffffffffffffffff167f17307eab39ab6107e8899845ad3d59bd9653f200f220920489ca2b5937696c318360405180821515815260200191505060405180910390a35050565b61217c612176612720565b83612a0e565b6121d1576040517f08c379a0000000000000000000000000000000000000000000000000000000008152600401808060200182810382526031815260200180613ff36031913960400191505060405180910390fd5b6121dd84848484612dbf565b50505050565b60606121ee82612703565b612243576040517f08c379a000000000000000000000000000000000000000000000000000000000815260040180806020018281038252602f815260200180613fa3602f913960400191505060405180910390fd5b6060600860008481526020019081526020016000208054600181600116156101000203166002900480601f0160208091040260200160405190810160405280929190818152602001828054600181600116156101000203166002900480156122ec5780601f106122c1576101008083540402835291602001916122ec565b820191906000526020600020905b8154815290600101906020018083116122cf57829003601f168201915b5050505050905060606122fd6117ec565b90506000815114156123135781925050506124af565b6000825111156123e45780826040516020018083805190602001908083835b602083106123555780518252602082019150602081019050602083039250612332565b6001836020036101000a03801982511681845116808217855250505050505090500182805190602001908083835b602083106123a65780518252602082019150602081019050602083039250612383565b6001836020036101000a03801982511681845116808217855250505050505090500192505050604051602081830303815290604052925050506124af565b806123ee85612e31565b6040516020018083805190602001908083835b602083106124245780518252602082019150602081019050602083039250612401565b6001836020036101000a03801982511681845116808217855250505050505090500182805190602001908083835b602083106124755780518252602082019150602081019050602083039250612452565b6001836020036101000a03801982511681845116808217855250505050505090500192505050604051602081830303815290604052925050505b919050565b6000600560008473ffffffffffffffffffffffffffffffffffffffff1673ffffffffffffffffffffffffffffffffffffffff16815260200190815260200160002060008373ffffffffffffffffffffffffffffffffffffffff1673ffffffffffffffffffffffffffffffffffffffff16815260200190815260200160002060009054906101000a900460ff16905092915050565b803373ffffffffffffffffffffffffffffffffffffffff16600d600083815260200190815260200160002060009054906101000a900473ffffffffffffffffffffffffffffffffffffffff1673ffffffffffffffffffffffffffffffffffffffff161461261d576040517f08c379a000000000000000000000000000000000000000000000000000000000815260040180806020018281038252601a8152602001807f596f7520646f6e2774206f776e207468697320616e696d616c2e00000000000081525060200191505060405180910390fd5b61262682612f78565b6000600d600084815260200190815260200160002060006101000a81548173ffffffffffffffffffffffffffffffffffffffff021916908373ffffffffffffffffffffffffffffffffffffffff160217905550600e60008381526020019081526020016000206000808201600061269d9190613c96565b6001820160006126ad9190613c96565b6002820160006101000a81549060ff02191690556002820160016101000a81549060ff02191690556002820160026101000a81549060ff02191690556002820160036101000a81549060ff021916905550505050565b60006127198260026130b290919063ffffffff16565b9050919050565b600033905090565b816004600083815260200190815260200160002060006101000a81548173ffffffffffffffffffffffffffffffffffffffff021916908373ffffffffffffffffffffffffffffffffffffffff160217905550808273ffffffffffffffffffffffffffffffffffffffff1661279b836117b5565b73ffffffffffffffffffffffffffffffffffffffff167f8c5be1e5ebec7d5bd14f71427d1e84f3dd0314c0f7b2291e5b200ac8c7c3b92560405160405180910390a45050565b6001816000016000828254019250508190555050565b600081600001549050919050565b600073ffffffffffffffffffffffffffffffffffffffff168273ffffffffffffffffffffffffffffffffffffffff1614156128a8576040517f08c379a00000000000000000000000000000000000000000000000000000000081526004018080602001828103825260208152602001807f4552433732313a206d696e7420746f20746865207a65726f206164647265737381525060200191505060405180910390fd5b6128b181612703565b15612924576040517f08c379a000000000000000000000000000000000000000000000000000000000815260040180806020018281038252601c8152602001807f4552433732313a20746f6b656e20616c7265616479206d696e7465640000000081525060200191505060405180910390fd5b612930600083836130cc565b61298181600160008573ffffffffffffffffffffffffffffffffffffffff1673ffffffffffffffffffffffffffffffffffffffff1681526020019081526020016000206130d190919063ffffffff16565b50612998818360026130eb9092919063ffffffff16565b50808273ffffffffffffffffffffffffffffffffffffffff16600073ffffffffffffffffffffffffffffffffffffffff167fddf252ad1be2c89b69c2b068fc378daa952ba7f163c4a11628f55a4df523b3ef60405160405180910390a45050565b6000612a0782600001613120565b9050919050565b6000612a1982612703565b612a6e576040517f08c379a000000000000000000000000000000000000000000000000000000000815260040180806020018281038252602c815260200180613dcb602c913960400191505060405180910390fd5b6000612a79836117b5565b90508073ffffffffffffffffffffffffffffffffffffffff168473ffffffffffffffffffffffffffffffffffffffff161480612ae857508373ffffffffffffffffffffffffffffffffffffffff16612ad084610e0d565b73ffffffffffffffffffffffffffffffffffffffff16145b80612af95750612af881856124b4565b5b91505092915050565b8273ffffffffffffffffffffffffffffffffffffffff16612b22826117b5565b73ffffffffffffffffffffffffffffffffffffffff1614612b8e576040517f08c379a0000000000000000000000000000000000000000000000000000000008152600401808060200182810382526029815260200180613f7a6029913960400191505060405180910390fd5b600073ffffffffffffffffffffffffffffffffffffffff168273ffffffffffffffffffffffffffffffffffffffff161415612c14576040517f08c379a0000000000000000000000000000000000000000000000000000000008152600401808060200182810382526024815260200180613d816024913960400191505060405180910390fd5b612c1f8383836130cc565b612c2a600082612728565b612c7b81600160008673ffffffffffffffffffffffffffffffffffffffff1673ffffffffffffffffffffffffffffffffffffffff16815260200190815260200160002061313190919063ffffffff16565b50612ccd81600160008573ffffffffffffffffffffffffffffffffffffffff1673ffffffffffffffffffffffffffffffffffffffff1681526020019081526020016000206130d190919063ffffffff16565b50612ce4818360026130eb9092919063ffffffff16565b50808273ffffffffffffffffffffffffffffffffffffffff168473ffffffffffffffffffffffffffffffffffffffff167fddf252ad1be2c89b69c2b068fc378daa952ba7f163c4a11628f55a4df523b3ef60405160405180910390a4505050565b6000612d54836000018361314b565b60001c905092915050565b600080600080612d7286600001866131ce565b915091508160001c8160001c9350935050509250929050565b6000612d9e846000018460001b84613267565b60001c90509392505050565b6000612db88260000161335d565b9050919050565b612dca848484612b02565b612dd68484848461336e565b612e2b576040517f08c379a0000000000000000000000000000000000000000000000000000000008152600401808060200182810382526032815260200180613d1e6032913960400191505060405180910390fd5b50505050565b60606000821415612e79576040518060400160405280600181526020017f30000000000000000000000000000000000000000000000000000000000000008152509050612f73565b600082905060005b60008214612ea3578080600101915050600a8281612e9b57fe5b049150612e81565b60608167ffffffffffffffff81118015612ebc57600080fd5b506040519080825280601f01601f191660200182016040528015612eef5781602001600182028036833780820191505090505b50905060006001830390508593505b60008414612f6b57600a8481612f1057fe5b0660300160f81b82828060019003935081518110612f2a57fe5b60200101907effffffffffffffffffffffffffffffffffffffffffffffffffffffffffffff1916908160001a905350600a8481612f6357fe5b049350612efe565b819450505050505b919050565b6000612f83826117b5565b9050612f91816000846130cc565b612f9c600083612728565b60006008600084815260200190815260200160002080546001816001161561010002031660029004905014612feb57600860008381526020019081526020016000206000612fea9190613c96565b5b61303c82600160008473ffffffffffffffffffffffffffffffffffffffff1673ffffffffffffffffffffffffffffffffffffffff16815260200190815260200160002061313190919063ffffffff16565b5061305182600261358790919063ffffffff16565b5081600073ffffffffffffffffffffffffffffffffffffffff168273ffffffffffffffffffffffffffffffffffffffff167fddf252ad1be2c89b69c2b068fc378daa952ba7f163c4a11628f55a4df523b3ef60405160405180910390a45050565b60006130c4836000018360001b6135a1565b905092915050565b505050565b60006130e3836000018360001b6135c4565b905092915050565b6000613117846000018460001b8473ffffffffffffffffffffffffffffffffffffffff1660001b613634565b90509392505050565b600081600001805490509050919050565b6000613143836000018360001b613710565b905092915050565b6000818360000180549050116131ac576040517f08c379a0000000000000000000000000000000000000000000000000000000008152600401808060200182810382526022815260200180613cfc6022913960400191505060405180910390fd5b8260000182815481106131bb57fe5b9060005260206000200154905092915050565b60008082846000018054905011613230576040517f08c379a0000000000000000000000000000000000000000000000000000000008152600401808060200182810382526022815260200180613f006022913960400191505060405180910390fd5b600084600001848154811061324157fe5b906000526020600020906002020190508060000154816001015492509250509250929050565b6000808460010160008581526020019081526020016000205490506000811415839061332e576040517f08c379a00000000000000000000000000000000000000000000000000000000081526004018080602001828103825283818151815260200191508051906020019080838360005b838110156132f35780820151818401526020810190506132d8565b50505050905090810190601f1680156133205780820380516001836020036101000a031916815260200191505b509250505060405180910390fd5b5084600001600182038154811061334157fe5b9060005260206000209060020201600101549150509392505050565b600081600001805490509050919050565b600061338f8473ffffffffffffffffffffffffffffffffffffffff166137f8565b61339c576001905061357f565b606061350663150b7a0260e01b6133b1612720565b888787604051602401808573ffffffffffffffffffffffffffffffffffffffff1681526020018473ffffffffffffffffffffffffffffffffffffffff16815260200183815260200180602001828103825283818151815260200191508051906020019080838360005b8381101561343557808201518184015260208101905061341a565b50505050905090810190601f1680156134625780820380516001836020036101000a031916815260200191505b5095505050505050604051602081830303815290604052907bffffffffffffffffffffffffffffffffffffffffffffffffffffffff19166020820180517bffffffffffffffffffffffffffffffffffffffffffffffffffffffff8381831617835250505050604051806060016040528060328152602001613d1e603291398773ffffffffffffffffffffffffffffffffffffffff1661380b9092919063ffffffff16565b9050600081806020019051602081101561351f57600080fd5b8101908080519060200190929190505050905063150b7a0260e01b7bffffffffffffffffffffffffffffffffffffffffffffffffffffffff1916817bffffffffffffffffffffffffffffffffffffffffffffffffffffffff191614925050505b949350505050565b6000613599836000018360001b613823565b905092915050565b600080836001016000848152602001908152602001600020541415905092915050565b60006135d0838361393c565b61362957826000018290806001815401808255809150506001900390600052602060002001600090919091909150558260000180549050836001016000848152602001908152602001600020819055506001905061362e565b600090505b92915050565b60008084600101600085815260200190815260200160002054905060008114156136db57846000016040518060400160405280868152602001858152509080600181540180825580915050600190039060005260206000209060020201600090919091909150600082015181600001556020820151816001015550508460000180549050856001016000868152602001908152602001600020819055506001915050613709565b828560000160018303815481106136ee57fe5b90600052602060002090600202016001018190555060009150505b9392505050565b600080836001016000848152602001908152602001600020549050600081146137ec576000600182039050600060018660000180549050039050600086600001828154811061375b57fe5b906000526020600020015490508087600001848154811061377857fe5b90600052602060002001819055506001830187600101600083815260200190815260200160002081905550866000018054806137b057fe5b600190038181906000526020600020016000905590558660010160008781526020019081526020016000206000905560019450505050506137f2565b60009150505b92915050565b600080823b905060008111915050919050565b606061381a848460008561395f565b90509392505050565b60008083600101600084815260200190815260200160002054905060008114613930576000600182039050600060018660000180549050039050600086600001828154811061386e57fe5b906000526020600020906002020190508087600001848154811061388e57fe5b90600052602060002090600202016000820154816000015560018201548160010155905050600183018760010160008360000154815260200190815260200160002081905550866000018054806138e157fe5b6001900381819060005260206000209060020201600080820160009055600182016000905550509055866001016000878152602001908152602001600020600090556001945050505050613936565b60009150505b92915050565b600080836001016000848152602001908152602001600020541415905092915050565b6060824710156139ba576040517f08c379a0000000000000000000000000000000000000000000000000000000008152600401808060200182810382526026815260200180613da56026913960400191505060405180910390fd5b6139c3856137f8565b613a35576040517f08c379a000000000000000000000000000000000000000000000000000000000815260040180806020018281038252601d8152602001807f416464726573733a2063616c6c20746f206e6f6e2d636f6e747261637400000081525060200191505060405180910390fd5b600060608673ffffffffffffffffffffffffffffffffffffffff1685876040518082805190602001908083835b60208310613a855780518252602082019150602081019050602083039250613a62565b6001836020036101000a03801982511681845116808217855250505050505090500191505060006040518083038185875af1925050503d8060008114613ae7576040519150601f19603f3d011682016040523d82523d6000602084013e613aec565b606091505b5091509150613afc828286613b08565b92505050949350505050565b60608315613b1857829050613bcd565b600083511115613b2b5782518084602001fd5b816040517f08c379a00000000000000000000000000000000000000000000000000000000081526004018080602001828103825283818151815260200191508051906020019080838360005b83811015613b92578082015181840152602081019050613b77565b50505050905090810190601f168015613bbf5780820380516001836020036101000a031916815260200191505b509250505060405180910390fd5b9392505050565b6040518060c001604052806060815260200160608152602001600060ff168152602001600060ff168152602001600060ff168152602001600060ff1681525090565b828054600181600116156101000203166002900490600052602060002090601f016020900481019282601f10613c5757805160ff1916838001178555613c85565b82800160010185558215613c85579182015b82811115613c84578251825591602001919060010190613c69565b5b509050613c929190613cde565b5090565b50805460018160011615610100020316600290046000825580601f10613cbc5750613cdb565b601f016020900490600052602060002090810190613cda9190613cde565b5b50565b5b80821115613cf7576000816000905550600101613cdf565b509056fe456e756d657261626c655365743a20696e646578206f7574206f6620626f756e64734552433732313a207472616e7366657220746f206e6f6e20455243373231526563656976657220696d706c656d656e7465724f6e65206f7220626f7468206f662074686520616e696d616c7320646f65736e27742062656c6f6e6720746f20796f752e4552433732313a207472616e7366657220746f20746865207a65726f2061646472657373416464726573733a20696e73756666696369656e742062616c616e636520666f722063616c6c4552433732313a206f70657261746f7220717565727920666f72206e6f6e6578697374656e7420746f6b656e4167652c2077696e67732c206c656773206f722065796573206e756d626572206d757374206265207375706572696f72206f7220657175616c207468616e20302e47656e64657220697320756e646566696e65642c20706c656173652063686f7365206265747765656e20276d616c6527206f72202766656d656c65272e4552433732313a20617070726f76652063616c6c6572206973206e6f74206f776e6572206e6f7220617070726f76656420666f7220616c6c4552433732313a2062616c616e636520717565727920666f7220746865207a65726f20616464726573734552433732313a206f776e657220717565727920666f72206e6f6e6578697374656e7420746f6b656e456e756d657261626c654d61703a20696e646578206f7574206f6620626f756e64734552433732313a20617070726f76656420717565727920666f72206e6f6e6578697374656e7420746f6b656e416e696d616c732063616e27742068617665207468652073616d652067656e64657220746f2062726565642e4552433732313a207472616e73666572206f6620746f6b656e2074686174206973206e6f74206f776e4552433732314d657461646174613a2055524920717565727920666f72206e6f6e6578697374656e7420746f6b656e4552433732313a20617070726f76616c20746f2063757272656e74206f776e65724552433732313a207472616e736665722063616c6c6572206973206e6f74206f776e6572206e6f7220617070726f766564a2646970667358221220ad103d1d81d6d7dc218c8826b416d8c426745c41bcfec0de7274b30fed8c9b3a64736f6c63430007000033",
  "immutableReferences": {},
  "source": "// SPDX-License-Identifier: MIT\r\npragma solidity >=0.4.22 <0.9.0;\r\n\r\nimport \"@openzeppelin/contracts/token/ERC721/ERC721.sol\";\r\nimport \"@openzeppelin/contracts/utils/Counters.sol\";\r\n\r\ncontract AnimalsWorld is ERC721 {\r\n\r\n    using Counters for Counters.Counter;\r\n    Counters.Counter private _tokenIds;\r\n\r\n    address owner;\r\n    uint private randNonce = 3; // init for no reason at 3\r\n\r\n    struct animalStruct {\r\n        string animalName;\r\n        string gender;\r\n        uint8 age;\r\n        uint8 wingsNumber;\r\n        uint8 legsNumber;\r\n        uint8 eyesNumber;\r\n    }\r\n\r\n    mapping(uint256 => address) public registerBreeder; // each unique item (animal) belongs to an address\r\n    mapping(uint256 => animalStruct) public animalCharacteristic;\r\n\r\n\r\n    constructor() public ERC721(\"AnimalsWorld\", \"ANMW\") {\r\n        owner = msg.sender;\r\n    }\r\n\r\n\r\n    // Anyone can create his own animal\r\n    function declareAnimal(string memory animalName, string memory gender, uint8 age, uint8 wingsNumber, uint8 legsNumber, uint8 eyesNumber)\r\n        public\r\n        returns (uint256)\r\n    {\r\n        require(age > 0 && wingsNumber > 0 && legsNumber > 0 && eyesNumber > 0, \"Age, wings, legs or eyes number must be superior or equal than 0.\");\r\n        require(keccak256(abi.encode(gender)) == \"male\" || keccak256(abi.encode(gender)) == \"femele\", \"Gender is undefined, please chose between 'male' or 'femele'.\");\r\n\r\n        _tokenIds.increment();\r\n\r\n        uint256 newAnimalId = _tokenIds.current();\r\n        _mint(msg.sender, newAnimalId);\r\n\r\n        registerBreeder[newAnimalId] = msg.sender;\r\n\r\n        animalStruct memory newAnimal = animalStruct(animalName, gender, age, wingsNumber, legsNumber, eyesNumber);\r\n        animalCharacteristic[newAnimalId] = newAnimal;\r\n\r\n        return newAnimalId;\r\n    }\r\n\r\n\r\n    function deadAnimal(uint256 animalId) public onlyAnimalOwner(animalId) {\r\n        _burn(animalId);\r\n        registerBreeder[animalId] = address(0);\r\n        delete animalCharacteristic[animalId];\r\n    }\r\n\r\n\r\n    // Create an animal by mixing two existing one and their characteristics\r\n    function breedAnimal(string memory newAnimalName, uint256 animal_one, uint256 animal_two) \r\n        public \r\n        returns (uint256) \r\n    {\r\n        require (registerBreeder[animal_one] == msg.sender && registerBreeder[animal_two] == msg.sender, \"One or both of the animals doesn't belong to you.\");\r\n        require (keccak256(abi.encode(animalCharacteristic[animal_one].gender)) != keccak256(abi.encode(animalCharacteristic[animal_two].gender)), \"Animals can't have the same gender to breed.\");\r\n\r\n        _tokenIds.increment();\r\n\r\n        uint256 newAnimalId = _tokenIds.current();\r\n        _mint(msg.sender, newAnimalId);\r\n\r\n        registerBreeder[newAnimalId] = msg.sender;\r\n\r\n        uint8 newWingsNumber = (animalCharacteristic[animal_one].wingsNumber + animalCharacteristic[animal_two].wingsNumber) / 2;\r\n        uint8 newLegsNumber = (animalCharacteristic[animal_one].legsNumber + animalCharacteristic[animal_two].legsNumber) / 2;\r\n        uint8 newEyesNumber = (animalCharacteristic[animal_one].eyesNumber + animalCharacteristic[animal_two].eyesNumber) / 2;\r\n        string memory newGender;\r\n        newGender = random() == 0 ? \"male\" : \"femele\";       \r\n\r\n        animalStruct memory newAnimal = animalStruct(newAnimalName, newGender, 0, newWingsNumber, newLegsNumber, newEyesNumber);\r\n        animalCharacteristic[newAnimalId] = newAnimal;\r\n\r\n        return newAnimalId;\r\n    }\r\n\r\n\r\n    function random() public returns (uint) {\r\n        randNonce++;\r\n        uint _random = uint(keccak256(abi.encodePacked(block.timestamp, msg.sender, randNonce)));\r\n        return _random % 2;\r\n    } \r\n\r\n\r\n    modifier onlyAnimalOwner(uint256 animalId) { \r\n        require (registerBreeder[animalId] == msg.sender, \"You don't own this animal.\"); // also imply that it exist\r\n        _;\r\n    }\r\n}",
  "sourcePath": "C:/Users/laith/OneDrive/Bureau/Informatique/GitHub/erc721-animals/contracts/AnimalsWorld.sol",
  "compiler": {
    "name": "solc",
    "version": "0.7.0+commit.9e61f92b.Emscripten.clang"
  },
  "schemaVersion": "3.3.4",
  "updatedAt": "2021-03-22T11:22:32.495Z",
  "devdoc": {
    "kind": "dev",
    "methods": {
      "approve(address,uint256)": {
        "details": "See {IERC721-approve}."
      },
      "balanceOf(address)": {
        "details": "See {IERC721-balanceOf}."
      },
      "baseURI()": {
        "details": "Returns the base URI set via {_setBaseURI}. This will be automatically added as a prefix in {tokenURI} to each token's URI, or to the token ID if no specific URI is set for that token ID."
      },
      "getApproved(uint256)": {
        "details": "See {IERC721-getApproved}."
      },
      "isApprovedForAll(address,address)": {
        "details": "See {IERC721-isApprovedForAll}."
      },
      "name()": {
        "details": "See {IERC721Metadata-name}."
      },
      "ownerOf(uint256)": {
        "details": "See {IERC721-ownerOf}."
      },
      "safeTransferFrom(address,address,uint256)": {
        "details": "See {IERC721-safeTransferFrom}."
      },
      "safeTransferFrom(address,address,uint256,bytes)": {
        "details": "See {IERC721-safeTransferFrom}."
      },
      "setApprovalForAll(address,bool)": {
        "details": "See {IERC721-setApprovalForAll}."
      },
      "supportsInterface(bytes4)": {
        "details": "See {IERC165-supportsInterface}. Time complexity O(1), guaranteed to always use less than 30 000 gas."
      },
      "symbol()": {
        "details": "See {IERC721Metadata-symbol}."
      },
      "tokenByIndex(uint256)": {
        "details": "See {IERC721Enumerable-tokenByIndex}."
      },
      "tokenOfOwnerByIndex(address,uint256)": {
        "details": "See {IERC721Enumerable-tokenOfOwnerByIndex}."
      },
      "tokenURI(uint256)": {
        "details": "See {IERC721Metadata-tokenURI}."
      },
      "totalSupply()": {
        "details": "See {IERC721Enumerable-totalSupply}."
      },
      "transferFrom(address,address,uint256)": {
        "details": "See {IERC721-transferFrom}."
      }
    },
    "version": 1
  },
  "userdoc": {
    "kind": "user",
    "methods": {},
    "version": 1
  }
}