{
  "contractName": "AnimalsFight",
  "abi": [
    {
      "stateMutability": "payable",
      "type": "fallback"
    },
    {
      "inputs": [
        {
          "internalType": "uint256",
          "name": "",
          "type": "uint256"
        }
      ],
      "name": "readyToFight_Stake",
      "outputs": [
        {
          "internalType": "uint256",
          "name": "",
          "type": "uint256"
        }
      ],
      "stateMutability": "view",
      "type": "function"
    },
    {
      "inputs": [
        {
          "internalType": "address",
          "name": "",
          "type": "address"
        }
      ],
      "name": "stakeInContract",
      "outputs": [
        {
          "internalType": "uint256",
          "name": "",
          "type": "uint256"
        }
      ],
      "stateMutability": "view",
      "type": "function"
    },
    {
      "inputs": [
        {
          "internalType": "uint256",
          "name": "animalId",
          "type": "uint256"
        },
        {
          "internalType": "uint256",
          "name": "_stake",
          "type": "uint256"
        }
      ],
      "name": "readyToFight",
      "outputs": [],
      "stateMutability": "nonpayable",
      "type": "function"
    },
    {
      "inputs": [
        {
          "internalType": "uint256",
          "name": "animalId",
          "type": "uint256"
        },
        {
          "internalType": "uint256",
          "name": "_opponent",
          "type": "uint256"
        }
      ],
      "name": "agreeToFight",
      "outputs": [],
      "stateMutability": "nonpayable",
      "type": "function"
    },
    {
      "inputs": [
        {
          "internalType": "uint256",
          "name": "animalId_participant",
          "type": "uint256"
        },
        {
          "internalType": "uint256",
          "name": "animalId_proposer",
          "type": "uint256"
        }
      ],
      "name": "fight",
      "outputs": [
        {
          "internalType": "string",
          "name": "",
          "type": "string"
        }
      ],
      "stateMutability": "nonpayable",
      "type": "function"
    }
  ],
  "bytecode": "0x608060405234801561001057600080fd5b50610f15806100206000396000f3fe60806040526004361061004e5760003560e01c80633f2e6f3c146100ac578063c1722d2b146100f1578063ca39e5ef14610136578063dacf3ee4146101f4578063fbd31c40146102435761004f565b5b600034141561005d57600080fd5b34600260003373ffffffffffffffffffffffffffffffffffffffff1673ffffffffffffffffffffffffffffffffffffffff16815260200190815260200160002060008282540192505081905550005b3480156100b857600080fd5b506100ef600480360360408110156100cf57600080fd5b8101908080359060200190929190803590602001909291905050506102a8565b005b3480156100fd57600080fd5b506101346004803603604081101561011457600080fd5b810190808035906020019092919080359060200190929190505050610503565b005b34801561014257600080fd5b506101796004803603604081101561015957600080fd5b810190808035906020019092919080359060200190929190505050610777565b6040518080602001828103825283818151815260200191508051906020019080838360005b838110156101b957808201518184015260208101905061019e565b50505050905090810190601f1680156101e65780820380516001836020036101000a031916815260200191505b509250505060405180910390f35b34801561020057600080fd5b5061022d6004803603602081101561021757600080fd5b8101908080359060200190929190505050610c58565b6040518082815260200191505060405180910390f35b34801561024f57600080fd5b506102926004803603602081101561026657600080fd5b81019080803573ffffffffffffffffffffffffffffffffffffffff169060200190929190505050610c70565b6040518082815260200191505060405180910390f35b813373ffffffffffffffffffffffffffffffffffffffff1660008054906101000a900473ffffffffffffffffffffffffffffffffffffffff1673ffffffffffffffffffffffffffffffffffffffff166380622165836040518263ffffffff1660e01b81526004018082815260200191505060206040518083038186803b15801561033157600080fd5b505afa158015610345573d6000803e3d6000fd5b505050506040513d602081101561035b57600080fd5b810190808051906020019092919050505073ffffffffffffffffffffffffffffffffffffffff16146103f5576040517f08c379a000000000000000000000000000000000000000000000000000000000815260040180806020018281038252601a8152602001807f596f7520646f6e2774206f776e207468697320616e696d616c2e00000000000081525060200191505060405180910390fd5b81600260003373ffffffffffffffffffffffffffffffffffffffff1673ffffffffffffffffffffffffffffffffffffffff16815260200190815260200160002054101561048d576040517f08c379a0000000000000000000000000000000000000000000000000000000008152600401808060200182810382526041815260200180610e5c6041913960600191505060405180910390fd5b600082116104e6576040517f08c379a0000000000000000000000000000000000000000000000000000000008152600401808060200182810382526043815260200180610e9d6043913960600191505060405180910390fd5b816001600085815260200190815260200160002081905550505050565b813373ffffffffffffffffffffffffffffffffffffffff1660008054906101000a900473ffffffffffffffffffffffffffffffffffffffff1673ffffffffffffffffffffffffffffffffffffffff166380622165836040518263ffffffff1660e01b81526004018082815260200191505060206040518083038186803b15801561058c57600080fd5b505afa1580156105a0573d6000803e3d6000fd5b505050506040513d60208110156105b657600080fd5b810190808051906020019092919050505073ffffffffffffffffffffffffffffffffffffffff1614610650576040517f08c379a000000000000000000000000000000000000000000000000000000000815260040180806020018281038252601a8152602001807f596f7520646f6e2774206f776e207468697320616e696d616c2e00000000000081525060200191505060405180910390fd5b60006001600084815260200190815260200160002054116106bc576040517f08c379a000000000000000000000000000000000000000000000000000000000815260040180806020018281038252603b815260200180610e21603b913960400191505060405180910390fd5b6001600083815260200190815260200160002054600260003373ffffffffffffffffffffffffffffffffffffffff1673ffffffffffffffffffffffffffffffffffffffff168152602001908152602001600020541015610767576040517f08c379a0000000000000000000000000000000000000000000000000000000008152600401808060200182810382526041815260200180610e5c6041913960600191505060405180910390fd5b6107718383610777565b50505050565b6060806000806000806000600160008981526020019081526020016000205490506000600160008a81526020019081526020016000208190555060008060009054906101000a900473ffffffffffffffffffffffffffffffffffffffff1673ffffffffffffffffffffffffffffffffffffffff16635ec01e4d6040518163ffffffff1660e01b8152600401602060405180830381600087803b15801561081c57600080fd5b505af1158015610830573d6000803e3d6000fd5b505050506040513d602081101561084657600080fd5b8101908080519060200190929190505050905060008114156109325788955089935061087182610c88565b60405160200180807f436f6e67726174756c6174696f6e2c20796f7520776f6e20000000000000000081525060180182805190602001908083835b602083106108cf57805182526020820191506020810190506020830392506108ac565b6001836020036101000a038019825116818451168082178552505050505050905001807f206574686572210000000000000000000000000000000000000000000000000081525060070191505060405160208183030381529060405296506109e1565b89955088935061094182610c88565b6040516020018080610dd96048913960480182805190602001908083835b60208310610982578051825260208201915060208101905060208303925061095f565b6001836020036101000a038019825116818451168082178552505050505050905001807f206574686572207829000000000000000000000000000000000000000000000081525060090191505060405160208183030381529060405296505b60008054906101000a900473ffffffffffffffffffffffffffffffffffffffff1673ffffffffffffffffffffffffffffffffffffffff166380622165876040518263ffffffff1660e01b81526004018082815260200191505060206040518083038186803b158015610a5257600080fd5b505afa158015610a66573d6000803e3d6000fd5b505050506040513d6020811015610a7c57600080fd5b8101908080519060200190929190505050945060008054906101000a900473ffffffffffffffffffffffffffffffffffffffff1673ffffffffffffffffffffffffffffffffffffffff166380622165856040518263ffffffff1660e01b81526004018082815260200191505060206040518083038186803b158015610b0057600080fd5b505afa158015610b14573d6000803e3d6000fd5b505050506040513d6020811015610b2a57600080fd5b8101908080519060200190929190505050925081600260008773ffffffffffffffffffffffffffffffffffffffff1673ffffffffffffffffffffffffffffffffffffffff1681526020019081526020016000206000828254039250508190555081600260008573ffffffffffffffffffffffffffffffffffffffff1673ffffffffffffffffffffffffffffffffffffffff1681526020019081526020016000206000828254019250508190555060008590508073ffffffffffffffffffffffffffffffffffffffff1663ec9b6db9886040518263ffffffff1660e01b815260040180828152602001915050600060405180830381600087803b158015610c2f57600080fd5b505af1158015610c43573d6000803e3d6000fd5b50505050879850505050505050505092915050565b60016020528060005260406000206000915090505481565b60026020528060005260406000206000915090505481565b60606000821415610cd0576040518060400160405280600181526020017f30000000000000000000000000000000000000000000000000000000000000008152509050610dd3565b600082905060005b60008214610cfa578080600101915050600a8281610cf257fe5b049150610cd8565b60608167ffffffffffffffff81118015610d1357600080fd5b506040519080825280601f01601f191660200182016040528015610d465781602001600182028036833780820191505090505b50905060008290505b60008614610dcb576001810390506000600a808881610d6a57fe5b04028703603001905060008160f81b905080848481518110610d8857fe5b60200101907effffffffffffffffffffffffffffffffffffffffffffffffffffffffffffff1916908160001a905350600a8881610dc157fe5b0497505050610d4f565b819450505050505b91905056fe536f7272792c20796f75207765726520646566656174656420616e6420796f7520616e696d616c20646965642e2e2e204f4820616e6420796f7527766520616c736f206c6f737420596f7572206f70706f6e656e7420646f65736e2774206578697374206f7220686176656e7420706c6163656420616e79207374616b65207965742e596f75206e65656420746f2073656e64206d6f7265206574686572207468616e20746865207374616b6520746f2074686520636f6e74726163742066697273742e596f7572207374616b65206d757374206265207375706572696f72207468616e2030206f746865727769736520796f752063616e27742070617274696369706174652ea2646970667358221220a85b8751cce0a0a7adec4f12315b1da2e101b8be0670b571bf9919e70261025064736f6c63430007000033",
  "immutableReferences": {},
  "source": "// SPDX-License-Identifier: MIT\r\npragma solidity >=0.4.22 <0.9.0;\r\n\r\nimport \"./AnimalsWorld.sol\";\r\n// import \"@openzeppelin/contracts/token/ERC20/ERC20.sol\";\r\n\r\ncontract AnimalsFight {\r\n\r\n    AnimalsWorld animals;\r\n\r\n    // mapping(address => AnimalsWorld) animalsOwner; // Needed if stake = 0 allowed\r\n    mapping(uint256 => uint256) public readyToFight_Stake; // animalId => stake\r\n    mapping(address => uint256) public stakeInContract;\r\n\r\n\r\n    fallback () external payable {\r\n        require(msg.value != 0);\r\n        stakeInContract[msg.sender] += msg.value;\r\n    }\r\n\r\n\r\n    function readyToFight(uint256 animalId, uint256 _stake) public ownAnimal(animalId) {\r\n        require(stakeInContract[msg.sender] >= _stake, \"You need to send more ether than the stake to the contract first.\");  // Can be removed to enable everybody to participate\r\n        require(_stake > 0, \"Your stake must be superior than 0 otherwise you can't participate.\");                      // Can be removed to enable everybody to participate\r\n        readyToFight_Stake[animalId] = _stake;\r\n    }\r\n\r\n\r\n    function agreeToFight(uint256 animalId, uint256 _opponent) public ownAnimal(animalId) { // opponent is an animal id\r\n        require(readyToFight_Stake[_opponent] > 0, \"Your opponent doesn't exist or havent placed any stake yet.\");\r\n        require(stakeInContract[msg.sender] >= readyToFight_Stake[_opponent], \"You need to send more ether than the stake to the contract first.\");\r\n        fight(animalId, _opponent);\r\n    }\r\n\r\n\r\n    function fight(uint256 animalId_participant, uint256 animalId_proposer) public returns (string memory) {\r\n\r\n        string memory returnedMessage;\r\n\r\n        uint256 _loserAnimal; // id\r\n        address _loserAddress;\r\n\r\n        uint256 _winnerAnimal; // id\r\n        address _winnerAddress;\r\n\r\n        uint256 _stake = readyToFight_Stake[animalId_proposer];\r\n        readyToFight_Stake[animalId_proposer] = 0; // reset the stake to 0 once the fight is over\r\n        \r\n        // DECLARE WINNER\r\n        uint randWinner = animals.random();\r\n        if (randWinner == 0) {\r\n            // joiner won\r\n            _loserAnimal = animalId_proposer;\r\n            _winnerAnimal = animalId_participant;\r\n\r\n            returnedMessage = string(abi.encodePacked(\"Congratulation, you won \", uint2str(_stake), \" ether!\"));\r\n        } else {\r\n            // proposer won\r\n            _loserAnimal = animalId_participant;\r\n            _winnerAnimal = animalId_proposer;\r\n            \r\n            returnedMessage = string(abi.encodePacked(\"Sorry, you were defeated and you animal died... OH and you've also lost \", uint2str(_stake), \" ether x)\"));\r\n        }\r\n\r\n        _loserAddress = animals.registerBreeder(_loserAnimal);\r\n        _winnerAddress = animals.registerBreeder(_winnerAnimal);\r\n\r\n        // TRANSFER ETHER\r\n        stakeInContract[_loserAddress] -= _stake;\r\n        stakeInContract[_winnerAddress] += _stake;\r\n        // _transfer(address(this), _winnerAddress, _stake); // amount in wei ? commented since _transfer()-ERC20 could not work in erc721 contract\r\n\r\n        // KILL ANIMAL\r\n        AnimalsWorld loser = AnimalsWorld(_loserAddress);\r\n        loser.deadAnimal(_loserAnimal); // Might not work if it is not called from the animal owner address\r\n\r\n        return returnedMessage;\r\n    }\r\n\r\n\r\n    modifier ownAnimal(uint256 animalId) {\r\n        require(animals.registerBreeder(animalId) == msg.sender, \"You don't own this animal.\");\r\n        _;\r\n    }\r\n    \r\n\r\n    // From https://github.com/provable-things/ethereum-api/blob/master/oraclizeAPI_0.5.sol\r\n    function uint2str(uint _i) internal pure returns (string memory _uintAsString) {\r\n        if (_i == 0) {\r\n            return \"0\";\r\n        }\r\n        uint j = _i;\r\n        uint len;\r\n        while (j != 0) {\r\n            len++;\r\n            j /= 10;\r\n        }\r\n        bytes memory bstr = new bytes(len);\r\n        uint k = len;\r\n        while (_i != 0) {\r\n            k = k-1;\r\n            uint8 temp = (48 + uint8(_i - _i / 10 * 10));\r\n            bytes1 b1 = bytes1(temp);\r\n            bstr[k] = b1;\r\n            _i /= 10;\r\n        }\r\n        return string(bstr);\r\n    }\r\n}",
  "sourcePath": "C:/Users/laith/OneDrive/Bureau/Informatique/GitHub/erc721-animals/contracts/AnimalsFight.sol",
  "compiler": {
    "name": "solc",
    "version": "0.7.0+commit.9e61f92b.Emscripten.clang"
  },
  "schemaVersion": "3.3.4",
  "updatedAt": "2021-03-21T20:16:55.027Z",
  "devdoc": {
    "kind": "dev",
    "methods": {},
    "version": 1
  },
  "userdoc": {
    "kind": "user",
    "methods": {},
    "version": 1
  }
}